:100000000C943A000C9457000C9457000C94570031
:100010000C9446020C9439010C9457000C94570030
:100020000C9457000C9457000C9457000C941C012E
:100030000C9457000C9457000C9470010C945700CA
:100040000C9457000C9457000C9443030C945700E5
:100050000C9457000C9457000C9457000C945700C4
:100060000C9457000C9457006364696E6F7073753D
:1000700078585B0011241FBECFEFD8E0DEBFCDBFA4
:1000800011E0A0E0B1E0E2EFF6E102C005900D92D0
:10009000A834B107D9F721E0A8E4B1E001C01D926E
:1000A000A136B207E1F70E94A6030C94770B0C94DB
:1000B0000000E1E8F0E0208128602083EFE6F0E036
:1000C0002081226020839093890080938800089586
:1000D0000F931F93CF93DF9300D000D000D0CDB704
:1000E000DEB75A9A25E32A95F1F700005A988091D5
:1000F0004E0190914F010197A9F410924F01109277
:100100004E0160E081E00E94B60184E091E00E942F
:10011000000260E081E00E94B60181E191E00E946E
:10012000000258C08091500190915101019709F04F
:1001300051C0109251011092500180915B01909139
:100140005C0164E770E00E9407052AE0269FC00179
:10015000279F900D11249093560180935501449749
:100160009CF11F921F927F936F938EE191E09F937A
:100170008F931F9286E08F938E010F5F1F4F1F9307
:100180000F930E942F0560E081E00E94B60184E099
:1001900091E00E94000260E081E00E94B601C80187
:1001A0000E9400020FB6F894DEBF0FBECDBF809153
:1001B0005201813049F49FEF23EC89E091502040B7
:1001C0008040E1F700C000008091550190915601F8
:1001D0000E94170326960FB6F894DEBF0FBECDBF60
:1001E000DF91CF911F910F91089523B130E002C0AC
:1001F000359527958A95E2F7822F81700895CF93E0
:10020000DF93D82F0E94F500C82F81110CC08FE119
:100210009EE40197F1F700C000008D2F0E94F500C9
:100220008823A9F301C0C1E08C2FDF91CF910895FD
:1002300085B5846085BD08951F920F920FB60F9209
:1002400011248F939F93EF93FF93E1E8F0E0808177
:100250008D7F808381E090E090934F0180934E01E9
:10026000FF91EF919F918F910F900FBE0F901F9074
:1002700018951F920F920FB60F9211248F939F9390
:100280004B9B0AC0109285001092840080918100DF
:100290008260809381005B988091840090918500BA
:1002A00085369105B0F04B9914C0809181008D7F07
:1002B00080938100809184009091850090935C01EF
:1002C00080935B0181E090E0909351018093500115
:1002D0005B9A9F918F910F900FBE0F901F90189572
:1002E0001F920F920FB60F9211248F939F938091BC
:1002F000000190910101892B21F485B58B7F85BD8B
:1003000012C0809100019091010180FD02C02D9AE0
:1003100001C02D9880910001909101010197909367
:100320000101809300019F918F910F900FBE0F905C
:100330001F9018959BB19F709BB99BB1807F892BB3
:100340008BB9299A29980895CF93C82F28980E948D
:100350009A018C2F8295807F0E949A018FE39FE102
:100360000197F1F700C00000CF910895811102C0FC
:1003700080E801C080EC860F0C94A4018AB1806FE4
:100380008AB984B1836084B98FE59AEE0197F1F759
:1003900000C0000080E30E949A018FE19EE4019773
:1003A000F1F700C0000080E30E949A018FED91E018
:1003B0000197F1F700C0000080E30E949A0180E2FB
:1003C0000E949A018FE39FE10197F1F700C00000BE
:1003D00088E20E94A4018FE00C94A401CF93C82F5F
:1003E000289A0E949A018C2F8295807F0E949A0100
:1003F0008FE39FE10197F1F700C00000CF910895CE
:10040000CF93DF93EC018991882319F00E94EE01CC
:10041000FACFDF91CF91089587B1827287B9809129
:100420006C00826280936C0088B1826288B986B168
:1004300080728093600186B1827080935D018091AB
:100440005D01811107C080916001811103C010928C
:100450005E0117C080915D01811106C0809160012D
:10046000882311F081E00BC080915D01882331F079
:1004700080916001811102C082E001C083E080931D
:100480005E0180915E0180935F0108951F920F923B
:100490000FB60F9211242F938F939F9386B1807282
:1004A0008093600186B1827080935D0180915E01CE
:1004B00081110DC080916001882311F081E020C07E
:1004C00080915D01882309F45EC082E051C0809173
:1004D0005E018130C1F48091600181110BC01092E6
:1004E0005F018091020190910301019790930301B4
:1004F0008093020180915D01882309F444C083E068
:1005000080935F011AC080915E018230E1F4809196
:100510006001882361F083E080935F018091020194
:1005200090910301019790930301809302018091C0
:100530005D01811128C010925F01809102019091AC
:10054000030101961CC08091600181110CC082E002
:1005500080935F0180910201909103010196909335
:1005600003018093020180915D0181110CC081E043
:1005700080935F0180910201909103010197909314
:10058000030180930201809102019091030180395F
:1005900091401CF081E090E008C0809102019091B0
:1005A0000301029734F480E991E090930301809372
:1005B000020190915E0180915F01981751F081E0F6
:1005C00090E0909349018093480180915F0180936E
:1005D0005E019F918F912F910F900FBE0F901F90F2
:1005E0001895E1ECF0E020812861208326E020933B
:1005F000C2003C9A44989093C5008093C4008081C7
:100600008068808308959091C00095FFFCCF80930F
:10061000C6000895CF93DF93EC018991843219F0DD
:100620000E940303FACFDF91CF910C9403030F9341
:100630001F93CF93DF9300D000D000D0CDB7DEB7AB
:100640009F938F9383E491E09F938F931F9286E013
:100650008F938E010F5F1F4F1F930F930E942F05E3
:10066000C8010E940A030FB6F894DEBF0FBECDBFCB
:1006700026960FB6F894DEBF0FBECDBFDF91CF91A7
:100680001F910F9108951F920F920FB60F92112490
:100690002F938F939F93EF93FF932091C600203465
:1006A000B9F4109254011092530181E090E09093BC
:1006B0004D0180934C0110924B0110924A0110920F
:1006C0005701109258011092590110925A0134C0EA
:1006D00080914C0190914D01892B71F180915301D2
:1006E00090915401049721F1243269F480915301CF
:1006F00090915401892B01F181E090E090934B019E
:1007000080934A0119C080ED820F8A3088F4E0910D
:100710005301F0915401E95AFE4F20838091530117
:10072000909154010196909354018093530104C019
:1007300010924D0110924C01FF91EF919F918F917A
:100740002F910F900FBE0F901F901895CF93DF93AE
:10075000CDB7DEB764970FB6F894DEBF0FBECDBF3E
:100760000E94BE010E940C0280E495EB0E94590099
:1007700067E670E080E090E00E94F10285B1886158
:1007800085B987B18C6087B9259A81E00E94A40160
:100790008091680086608093680080916D0084601D
:1007A00080936D0085B5846085BD87E787BD8091A6
:1007B0006E00826080936E0078948CE291E00E94DB
:1007C000FF099093030180930201809102019091AF
:1007D0000301181619063CF480910201909103015F
:1007E0008139914034F081E090E09093030180934F
:1007F000020168E080E00E94B601809102019091C0
:1008000003019F938F9384E291E09F938F931F92B4
:100810008AE08F938E010F5F1F4F1F930F930E94EB
:100820002F05C8010E9400020FB6F894DEBF0FBE6C
:10083000CDBF81E2E82E81E0F82E9AE0392E2E011C
:1008400053E1450E511C27E5622E21E0722E3AE05D
:10085000832E912C49E3A42E41E0B42E58E0252E9E
:100860006E018BE0C80ED11C809148019091490126
:10087000019771F5109249011092480160910201AF
:10088000709103018CE291E00E94050A80910201BF
:10089000909103019F938F93FF92EF921F923F924B
:1008A0001F930F930E942F056CE080E00E94B60119
:1008B00088E091E00E9400026CE080E00E94B601B6
:1008C000C8010E9400020FB6F894DEBF0FBECDBF74
:1008D00080915201811116C060E00E94B6018BE246
:1008E00091E00E94000283E00E94FF00811104C099
:1008F00051E0509352011EC084E00E94FF0081111C
:1009000019C016C08130B1F483E00E94FF00882333
:1009100029F084E00E94FF00811102C01092520170
:1009200060E080E00E94B60182E391E00E94000254
:100930000E94680080914A0190914B01019709F053
:1009400093CF80914C0190914D01019709F08CCF8C
:1009500010924B0110924A0110924D0110924C01DD
:100960005F924F92FF92EF927F926F920E945F058B
:100970008B899C89B4010E9407059F938F937F9375
:100980006F93BF92AF921F922F92DF92CF920E94ED
:100990002F0568E081E00E94B60187E091E00E94A7
:1009A000000268E081E00E94B601C6010E940002D8
:1009B0002B893C8980915501909156010FB6F8948E
:1009C000DEBF0FBECDBF281739071CF4439A4298EB
:1009D00008C0821793071CF44398429A02C04298B9
:1009E00043988091520181113FCF209102013091B3
:1009F0000301329EC001339E900D11242B893C8946
:100A0000821793070CF430CF0E9418012DCF97FB6B
:100A1000072E16F4009407D077FD09D00E941B051D
:100A200007FC05D03EF4909581959F4F08957095F1
:100A300061957F4F0895AA1BBB1B51E107C0AA1FF8
:100A4000BB1FA617B70710F0A61BB70B881F991F6F
:100A50005A95A9F780959095BC01CD010895AEE017
:100A6000B0E0E5E3F5E00C944E0B0D891E898F890B
:100A7000988D26E02C831A83098397FF02C080E0BB
:100A800090E801979E838D83AE01455E5F4F698D2F
:100A90007A8DCE0101960E9478054D815E8157FDC9
:100AA0000AC02F813885421753070CF49A01F801C8
:100AB000E20FF31F10822E96E4E00C946A0BAEE076
:100AC000B0E0E5E6F5E00C94500B85E08C838B8973
:100AD0009C899A838983AE01495E5F4F6D897E89C7
:100AE000CE0101960E94C8082E96E2E00C946C0B91
:100AF000ACE0B0E0EEE7F5E00C94400B7C016B015C
:100B00008A01FC0117821682838181FFBDC1CE015B
:100B100001964C01F7019381F60193FD859193FFB6
:100B200081916F01882309F4ABC1853239F493FDBB
:100B3000859193FF81916F01853229F4B70190E08F
:100B40000E94720AE7CF512C312C20E02032A0F411
:100B50008B3269F030F4803259F0833269F42061CD
:100B60002CC08D3239F0803339F4216026C02260E8
:100B7000246023C0286021C027FD27C030ED380F36
:100B80003A3078F426FF06C0FAE05F9E300D11245B
:100B9000532E13C08AE0389E300D1124332E20626C
:100BA0000CC08E3221F426FD6BC1206406C08C3649
:100BB00011F4206802C0883641F4F60193FD859156
:100BC00093FF81916F018111C1CF982F9F7D955423
:100BD000933028F40C5F1F4FFFE3F9830DC0833679
:100BE00031F0833771F0833509F05BC022C0F80122
:100BF000808189830E5F1F4F44244394512C5401FC
:100C000015C03801F2E06F0E711CF801A080B180B0
:100C100026FF03C0652D70E002C06FEF7FEFC501B6
:100C20002C870E94290A2C0183012C852F77222EE4
:100C300017C03801F2E06F0E711CF801A080B1807E
:100C400026FF03C0652D70E002C06FEF7FEFC50186
:100C50002C870E941E0A2C012C852068222E8301DD
:100C600023FC1BC0832D90E048165906B0F4B70151
:100C700080E290E00E94720A3A94F4CFF50127FCDA
:100C8000859127FE81915F01B70190E00E94720A71
:100C900031103A94F1E04F1A51084114510471F7A0
:100CA000E5C0843611F0893639F5F80127FF07C011
:100CB00060817181828193810C5F1F4F08C06081C8
:100CC0007181882777FD8095982F0E5F1F4F2F76B3
:100CD000B22E97FF09C090958095709561957F4FD2
:100CE0008F4F9F4F2068B22E2AE030E0A4010E946F
:100CF000BD0AA82EA81844C0853729F42F7EB22E2D
:100D00002AE030E025C0F22FF97FBF2E8F36C1F0E8
:100D100018F4883579F0B4C0803719F0883721F09D
:100D2000AFC02F2F2061B22EB4FE0DC08B2D84607A
:100D3000B82E09C024FF0AC09F2F9660B92E06C0A6
:100D400028E030E005C020E130E002C020E132E0E0
:100D5000F801B7FE07C060817181828193810C5FC9
:100D60001F4F06C06081718180E090E00E5F1F4FD1
:100D7000A4010E94BD0AA82EA818FB2DFF77BF2E44
:100D8000B6FE0BC02B2D2E7FA51450F4B4FE0AC066
:100D9000B2FC08C02B2D2E7E05C07A2C2B2D03C053
:100DA0007A2C01C0752C24FF0DC0FE01EA0DF11D47
:100DB0008081803311F4297E09C022FF06C073941C
:100DC000739404C0822F867809F0739423FD13C0B6
:100DD00020FF06C05A2C731418F4530C5718732CA8
:100DE000731468F4B70180E290E02C870E94720AC5
:100DF00073942C85F5CF731410F4371801C0312C7F
:100E000024FF12C0B70180E390E02C870E94720A91
:100E10002C8522FF17C021FF03C088E590E002C0A7
:100E200088E790E0B7010CC0822F867859F021FD49
:100E300002C080E201C08BE227FD8DE2B70190E0A5
:100E40000E94720AA51438F4B70180E390E00E9472
:100E5000720A5A94F7CFAA94F401EA0DF11D808129
:100E6000B70190E00E94720AA110F5CF332009F477
:100E700051CEB70180E290E00E94720A3A94F6CF18
:100E8000F7018681978102C08FEF9FEF2C96E2E1F8
:100E90000C945C0B20FD09C0FC0123FD05C022FF62
:100EA00002C07383628351834083089544FD10C060
:100EB00046FD10C0DB01FC01AA0FBB1FEE1FFF1F88
:100EC0001094D1F76A0F7B1F8E1F9F1F31E003C064
:100ED00033E001C034E0660F771F881F991F31503F
:100EE000D1F7620F711D811D911D08950F931F93FE
:100EF000CF93DF938C01C8010E94340AEC0197FD67
:100F000008C00E940B0A892BB1F7B801CE010E94DC
:100F1000A40ACE01DF91CF911F910F9108958F9276
:100F20009F92AF92CF92DF92EF92FF920F931F9317
:100F3000CF93DF93EC01A62E4A01022F0E94340AC0
:100F4000AC0155274B32510521F04D32510551F47A
:100F50000068AA9411F480E067C0CE010E94340AB0
:100F600097FDF9CF102F1D7F302F307301F580339F
:100F7000F1F4FF24FA94FA0C09F442C0CE010E9465
:100F8000340A97FD3DC0382F3F7D383551F4126447
:100F9000AA94AA94A9F1CE010E94340A97FF07C02F
:100FA0002FC006FF02C0126001C01261AF2CC12C1D
:100FB000D12C760120ED280F283080F014FF04C0DA
:100FC000BE010E94A40A19C02A3040F016FFF8CFD3
:100FD0002F7D3FEE320F363098F72750412FC70153
:100FE000B6010E9456076B017C011260AA9459F069
:100FF000CE010E94340A97FFDDCF11FD04C0ABCFB4
:10100000C12CD12C760117FF08C0F094E094D09445
:10101000C094C11CD11CE11CF11C212FB701A601F9
:10102000C4010E944A0781E0DF91CF911F910F9187
:10103000FF90EF90DF90CF90AF909F908F900895AA
:10104000A1E2B0E0E6E2F8E00C94450B5C017A0125
:101050008E010F5F1F4F680180E2D8011D928A95B3
:10106000E9F7F501738040E050E0812CB0E0912C6D
:1010700081E090E0F90173FCA59173FEA1918F01CD
:101080007A2F9F01A11103C080E090E07DC0AE35B2
:1010900019F44115510559F1E92DF0E0E417F50770
:1010A0003CF4AD3569F1AD3219F4BB2319F103C03D
:1010B000B11101C08A2EE72FE695E695E6958601E7
:1010C0000E0F111DF801A72FA7708C0102C0000F91
:1010D000111FAA95E2F7D801B081BA2BB083781519
:1010E00059F0781510F47F5FE6CF7150E4CF992462
:1010F000939403C0B1E001C0B0E04F5F5F4FBACF3F
:10110000BB2319F08E8180628E83911003C09924D5
:10111000939415C0F601CE018196208120952193EC
:10112000E817F907D1F7F3CFE114F10429F0D7015B
:101130008C93F70131967F01615001F1912CC5012B
:1011400069A30E94340A69A197FD16C0282F26952D
:1011500026952695F601E20FF11D208130E0AC01C5
:101160004770552702C0359527954A95E2F720FD2F
:10117000DBCFB5010E94A40A911086CFE114F104DF
:1011800011F0D7011C92C801A196EDE00C94610BFF
:101190004F925F927F928F929F92AF92BF92CF9227
:1011A000DF92EF92FF920F931F93CF93DF931F92E3
:1011B000CDB7DEB78C012B017A01FC0117821682B4
:1011C000A12CF801D380F201D3FC8591D3FE81914B
:1011D000382F2F01882309F4FCC090E039830E9446
:1011E0000B0A3981892B21F0C8010E947607E9CFCB
:1011F000353241F4F201D3FC3591D3FE31912F0108
:10120000353269F4C80139830E94340A398197FD67
:10121000DEC03817B1F2B8010E94A40ADAC03A322F
:1012200041F4D3FC3591D3FE31912F01BB24B3940B
:1012300001C0B12C712C20ED230F2A3090F4FB2D2E
:10124000F260BF2E672D70E080E090E040E20E94E7
:101250005607762EF201D3FC3591D3FE31912F0142
:10126000EACFB1FE03C0711003C0B3C077247A94F3
:10127000383619F03C3661F014C0F201D3FC3591D8
:10128000D3FE31912F01383661F4FB2DF860BF2E6B
:101290008B2D8460B82EF201D3FC3591D3FE3191B1
:1012A0002F01332309F495C0632F70E088E690E0A6
:1012B00039830E94130A3981892B09F48AC0B0FC52
:1012C00007C0F701C080D180C70102967C0102C02F
:1012D000C12CD12C3E3651F4F8014681578160E093
:1012E00070E02B2DC6010E944A076BCF3336A1F464
:1012F000B1FC02C077247394C8010E94340A97FDA0
:1013000066C0C114D10429F0F6018083C60101969C
:101310006C017A9489F757C03B3559F49201A601C4
:10132000672DC8010E9420082C01009709F04BC0CE
:1013300045C0C80139830E947607398197FD47C0AF
:101340003F3669F128F4343631F1393679F12BC062
:10135000333769F03537F9F026C0C114D10429F0CC
:10136000F6018082C60101966C017A9471F0C80181
:101370000E94340A4C0197FD08C00E940B0A892B79
:1013800061F3B801C4010E94A40AC114D104D9F0C8
:10139000F601108218C0FB2DF062BF2E07C08B2D06
:1013A0008061B82E03C09B2D9064B92E2B2DA60111
:1013B000672DC8010E948F07811105C0F801838144
:1013C000807329F406C0B0FCFCCEA394FACEAA2008
:1013D00019F08A2D90E002C08FEF9FEF0F90DF9100
:1013E000CF911F910F91FF90EF90DF90CF90BF9022
:1013F000AF909F908F907F905F904F900895A8E15D
:10140000B0E042E050E00C941D0B0196272F0E94A3
:101410002C0B0C942B0B911130C1803219F0895098
:101420008550D0F70895FC010590061621F00020A4
:10143000D9F7C00108953197CF010895FC010590B7
:10144000615070400110D8F7809590958E0F9F1FC6
:101450000895FC016150704001900110D8F780950B
:1014600090958E0F9F1F0895CF93DF93EC012B81F2
:1014700020FF33C026FF0AC02F7B2B838E819F81E4
:1014800001969F838E838A8190E029C022FF0FC03E
:10149000E881F9818081992787FD9095009719F45B
:1014A00020622B831AC03196F983E8830EC0EA8547
:1014B000FB85099597FF09C02B81019611F480E106
:1014C00001C080E2822B8B8308C02E813F812F5F79
:1014D0003F4F3F832E83992702C08FEF9FEFDF910D
:1014E000CF9108950F931F93CF93DF93182F092F58
:1014F000EB018B8181FD03C08FEF9FEF20C082FF46
:1015000010C04E815F812C813D81421753077CF4CE
:10151000E881F9819F012F5F3F4F39832883108332
:1015200006C0E885F985812F0995892B29F72E8139
:101530003F812F5F3F4F3F832E83812F902FDF917D
:10154000CF911F910F910895FB01238120FF12C0BD
:1015500026FD10C08F3F3FEF930761F082832F7D00
:1015600020642383268137812150310937832683E4
:10157000992708958FEF9FEF0895FA01AA27283041
:1015800051F1203181F1E8946F936E7F6E5F7F4F50
:101590008F4F9F4FAF4FB1E03ED0B4E03CD0670FCC
:1015A000781F891F9A1FA11D680F791F8A1F911D1F
:1015B000A11D6A0F711D811D911DA11D20D009F46F
:1015C00068943F912AE0269F11243019305D3193B1
:1015D000DEF6CF010895462F4770405D4193B3E09A
:1015E0000FD0C9F7F6CF462F4F70405D4A3318F041
:1015F000495D31FD4052419302D0A9F7EACFB4E0F2
:10160000A6959795879577956795BA95C9F70097A9
:101610006105710508959B01AC010A2E069457954A
:10162000479537952795BA95C9F7620F731F841FA1
:10163000951FA01D0895DC01CB01FC01F999FECF97
:1016400006C0F2BDE1BDF89A319600B40D9241504A
:101650005040B8F70895262FF999FECF92BD81BD6D
:10166000F89A019700B4021639F01FBA20BD0FB6E0
:10167000F894FA9AF99A0FBE089599278827089541
:101680002F923F924F925F926F927F928F929F9292
:10169000AF92BF92CF92DF92EF92FF920F931F9380
:1016A000CF93DF93CDB7DEB7CA1BDB0B0FB6F89431
:1016B000DEBF0FBECDBF09942A88398848885F8471
:1016C0006E847D848C849B84AA84B984C884DF80E2
:1016D000EE80FD800C811B81AA81B981CE0FD11DC6
:1016E0000FB6F894DEBF0FBECDBFED010895F8949C
:0216F000FFCF2A
:1016F2004A0101002020202020202020202020201C
:10170200006F7574206F662072616E6765002564D4
:101712002E2564004D494E3A25640053696E676C6C
:101722006500526570656174002533642E2531644D
:08173200636D004025642400F2
:00000001FF
